:100000000C942A000C943F000C943F000C943F0089
:100010000C943F000C943F000C943F000C943F0064
:100020000C943F000C943F000C943F000C943F0054
:100030000C943F000C943F000C943F000C943F0044
:100040000C943F000C943F000C943F000C943F0034
:100050000C943F0011241FBECFE5D8E0DEBFCDBF1A
:1000600012E0A0E6B0E0E0EAFDE202C005900D92E9
:10007000AC39B107D9F70E94FC150C94CE160C943C
:100080000000EF92FF920F931F937B018C0120E001
:1000900030E040E05FE40E94410388238CF0C80117
:1000A000B70120E030E040E05FE40E94B9010E9427
:1000B000A1039B01AC01205030404040504806C095
:1000C000C801B7010E94A1039B01AC01B901CA019B
:1000D0001F910F91FF90EF900895A0E0B0E0E3E74B
:1000E000F0E00C949716DC012B01FA019C91923000
:1000F00008F439C1EB018881823008F433C19430AF
:1001000069F4843009F02FC111969C91119789816F
:10011000981709F428C1A4E9B2E025C1843009F494
:1001200021C18230A9F4923009F01DC19A01AD01BC
:1001300088E0EA010990AE01E90109929E0181502F
:10014000C1F7E201898111969C918923818308C1BD
:10015000923009F407C112962D903C901397EB0151
:100160008A819B811496AD90BD90CD90DC901797BD
:10017000EC80FD800E811F819101281B390BB90194
:1001800037FF04C066277727621B730B6032710547
:100190000CF061C0121613066CF537014801062EEB
:1001A00004C096948794779467940A94D2F721E0D8
:1001B00030E040E050E004C0220F331F441F551FC1
:1001C0006A95D2F721503040404050402E213F21C7
:1001D00040235123211531054105510521F021E02E
:1001E00030E040E050E079018A01E628F72808294C
:1001F00019293CC0232BD1F1260E371E35014601AB
:10020000062E04C096948794779467940A94D2F744
:1002100021E030E040E050E004C0220F331F441FD3
:10022000551F6A95D2F721503040404050402A2156
:100230003B214C215D21211531054105510521F05E
:1002400021E030E040E050E059016A01A628B728DB
:10025000C828D9280BC0821593052CF01C01AA24AC
:10026000BB24650103C0EE24FF24870111969C91F5
:10027000D20111968C91981709F445C0992339F051
:10028000A80197012A193B094C095D0906C0A6017E
:1002900095012E193F09400B510B57FD08C01182E3
:1002A0003382228224833583468357831DC081E0B5
:1002B00081833382228288279927DC01821B930B5A
:1002C000A40BB50B84839583A683B7830DC0220F3F
:1002D000331F441F551F24833583468357838281F0
:1002E000938101979383828324813581468157814D
:1002F000DA01C9010197A109B1098F5F9F4FAF4F83
:10030000BF4328F30BC0918333822282EA0CFB1C8B
:100310000C1D1D1DE482F5820683178383E0808314
:10032000248135814681578157FF1AC0C901AA2708
:1003300097FDA095BA2F81709070A070B0705695FF
:10034000479537952795822B932BA42BB52B848328
:100350009583A683B7838281938101969383828359
:10036000DF0101C0D201CD01CDB7DEB7E2E10C94CF
:10037000B316A0E2B0E0EFEBF1E00C94A3166983B2
:100380007A838B839C832D833E834F835887E9E058
:10039000EE2EF12CEC0EFD1ECE010196B7010E944F
:1003A000CA048E010F5E1F4FCE010596B8010E9450
:1003B000CA048A8991E089278A8BC701B801AE01F6
:1003C000475E5F4F0E946D000E94F503A096E6E035
:1003D0000C94BF16A0E2B0E0E0EFF1E00C94A3169D
:1003E00069837A838B839C832D833E834F835887D5
:1003F000F9E0EF2EF12CEC0EFD1ECE010196B701B7
:100400000E94CA048E010F5E1F4FCE010596B801EF
:100410000E94CA04C701B801AE01475E5F4F0E9447
:100420006D000E94F503A096E6E00C94BF16A0E2D2
:10043000B0E0EDE1F2E00C94971669837A838B8348
:100440009C832D833E834F835887CE010196BE0146
:10045000675F7F4F0E94CA04CE010596BE016F5EA2
:100460007F4F0E94CA049985923088F08989823032
:10047000C8F0943019F4823051F404C0843029F467
:10048000923081F484E992E0C6C0923049F420E0D1
:100490009A858A89981321E02A87CE010996BBC0E4
:1004A000823049F420E09A858A89981321E02A8BCA
:1004B000CE014196B0C02D843E844F8458886D880B
:1004C0007E888F88988CEE24FF248701AA24BB2481
:1004D000650140E050E060E070E0E0E0F0E0C10184
:1004E00081709070892BE9F0E60CF71C081D191D2E
:1004F0009A01AB012A0D3B1D4C1D5D1D80E090E073
:10050000A0E0B0E0E614F7040805190520F481E046
:1005100090E0A0E0B0E0BA01A901480F591F6A1F9E
:100520007B1FAA0CBB1CCC1CDD1C97FE08C081E005
:1005300090E0A0E0B0E0A82AB92ACA2ADB2A3196C6
:10054000E032F10549F0660C771C881C991C569422
:10055000479437942794C3CFFA85EA892B893C893D
:100560008B859C85280F391F2E5F3F4F17C0CA010E
:1005700081709070892B61F016950795F794E79438
:1005800080E090E0A0E0B0E8E82AF92A0A2B1B2BD3
:1005900076956795579547952F5F3F4F77FDE7CF46
:1005A0000CC0440F551F661F771F17FD4160EE0CEE
:1005B000FF1C001F111F21503040403090E05907B0
:1005C00090E0690790E4790760F32B8F3C8FDB01A3
:1005D000CA018F779070A070B07080349105A1052A
:1005E000B10561F447FD0AC0E114F10401051105EC
:1005F00029F0405C5F4F6F4F7F4F40781A8EFE1797
:1006000011F081E08A8F4D8F5E8F6F8F78A383E02A
:10061000898FCE0149960E94F503A096E2E10C94E1
:10062000B316A8E1B0E0E7E1F3E00C94A316698308
:100630007A838B839C832D833E834F83588789E005
:10064000E82EF12CEC0EFD1ECE010196B7010E94A2
:10065000CA048E010F5E1F4FCE010596B8010E949D
:10066000CA048985823040F08989823028F0C70128
:10067000B8010E94420501C08FEF6896E6E00C9435
:10068000BF16A8E1B0E0E7E4F3E00C94A316698399
:100690007A838B839C832D833E834F83588789E0A5
:1006A000E82EF12CEC0EFD1ECE010196B7010E9442
:1006B000CA048E010F5E1F4FCE010596B8010E943D
:1006C000CA048985823040F08989823028F0C701C8
:1006D000B8010E94420501C08FEF6896E6E00C94D5
:1006E000BF16A8E1B0E0E7E7F3E00C94A316698336
:1006F0007A838B839C832D833E834F83588789E045
:10070000E82EF12CEC0EFD1ECE010196B7010E94E1
:10071000CA048E010F5E1F4FCE010596B8010E94DC
:10072000CA048985823040F08989823028F0C70167
:10073000B8010E94420501C081E06896E6E00C9491
:10074000BF16ACE0B0E0E7EAF3E00C94A7166983CB
:100750007A838B839C83CE010196BE016B5F7F4FB2
:100760000E94CA048D81823061F1823050F1843060
:1007700021F48E81882351F12EC02F81388537FDD9
:1007800020C06E812F3131051CF06623F9F023C0A3
:100790008EE190E0821B930B29853A854B855C8521
:1007A00004C056954795379527958A95D2F76623C5
:1007B000B1F050954095309521953F4F4F4F5F4F89
:1007C0000EC020E030E040E050E009C02FEF3FEFE6
:1007D0004FEF5FE704C020E030E040E050E8B901AF
:1007E000CA012C96E2E00C94C316DF92EF92FF92BE
:1007F0000F931F93FC01E480F58006811781D1805F
:100800008081823048F480E090E0A0E1B0E0E82A06
:10081000F92A0A2B1B2BA5C0843009F49FC0823013
:1008200021F4EE24FF24870105C0E114F104010541
:10083000110519F4E0E0F0E096C0628173819FEF4A
:10084000623879070CF05BC022E83FEF261B370BBC
:100850002A3131052CF020E030E040E050E02AC0A1
:10086000B801A701022E04C0769567955795479564
:100870000A94D2F781E090E0A0E0B0E004C0880FD5
:10088000991FAA1FBB1F2A95D2F70197A109B10989
:100890008E219F21A023B1230097A105B10521F04E
:1008A00081E090E0A0E0B0E09A01AB01282B392B69
:1008B0004A2B5B2BDA01C9018F779070A070B07062
:1008C00080349105A105B10539F427FF09C0205CEA
:1008D0003F4F4F4F5F4F04C0215C3F4F4F4F5F4F23
:1008E000E0E0F0E02030A0E03A07A0E04A07A0E412
:1008F0005A0710F0E1E0F0E079018A0127C0603882
:10090000710564F5FB01E158FF4FD801C7018F77EE
:100910009070A070B07080349105A105B10539F4D4
:10092000E7FE0DC080E490E0A0E0B0E004C08FE3FB
:1009300090E0A0E0B0E0E80EF91E0A1F1B1F17FFB1
:1009400005C016950795F794E794319687E01695BC
:100950000795F794E7948A95D1F705C0EE24FF2414
:100960008701EFEFF0E06E2F679566276795902F70
:100970009F77D794DD24D7948E2F8695492F462BC9
:10098000582F5D29B701CA011F910F91FF90EF9079
:10099000DF900895FC01DB01408151812281622FAB
:1009A0006F7770E0221F2227221F9381892F880FE3
:1009B000822B282F30E0991F9927991F11969C931D
:1009C000119721153105A9F54115510561057105ED
:1009D00011F482E037C082E89FEF13969C938E93C8
:1009E00012979A01AB0167E0220F331F441F551F76
:1009F0006A95D1F783E08C930DC0220F331F441FFB
:100A0000551F12968D919C911397019713969C9365
:100A10008E931297203080E0380780E0480780E40A
:100A2000580758F314962D933D934D935C93179765
:100A300008952F3F310579F4411551056105710580
:100A400019F484E08C93089564FF03C081E08C93D3
:100A500012C01C9210C02F57304013963C932E9317
:100A6000129783E08C9387E0440F551F661F771F12
:100A70008A95D1F7706414964D935D936D937C9332
:100A8000179708951F93DC01FB019C91923008F4A5
:100A900047C08081823008F443C0943051F41196ED
:100AA0001C91843099F58181682F70E0611B710978
:100AB0003FC0843021F0923031F48230B9F181812D
:100AC000882389F12DC011961C9111978230F1F085
:100AD00081811817D9F412962D913C911397828138
:100AE00093818217930794F028173907BCF0149666
:100AF0008D919D910D90BC91A02D248135814681D1
:100B00005781281739074A075B0718F4112341F06A
:100B10000AC082179307A407B50740F4112319F000
:100B200061E070E005C06FEF7FEF02C060E070E051
:100B3000CB011F910895DF93CF93CDB7DEB76297B6
:100B40000FB6F894DEBF0FBECDBF888B83E066E0A2
:100B500040E00E948C0C83E065E040E00E948C0C39
:100B60001F860AC18F85282F30E03A8B298B89890F
:100B70009A89009739F029893A892130310509F499
:100B800047C07BC08889982F991F9927991F83E0B8
:100B900060E0492F0E948C0C8889882F90E0807437
:100BA0009070082E892F000C881F990B000C881F4D
:100BB000991F982F83E061E0492F0E948C0C88894F
:100BC000882F90E080729070959587959595879580
:100BD000959587959595879595958795982F83E019
:100BE00062E0492F0E948C0C8889882F90E08071E8
:100BF00090709595879595958795959587959595F9
:100C00008795982F83E063E0492F0E948C0C35C0B4
:100C10008889882F90E08870907095958795959534
:100C2000879595958795982F83E060E0492F0E94DE
:100C30008C0C8889882F90E08470907095958795AA
:100C400095958795982F83E061E0492F0E948C0C41
:100C50008889882F90E08270907095958795982F5D
:100C600083E062E0492F0E948C0C8889982F917054
:100C700083E063E0492F0E948C0C83E064E041E054
:100C80000E948C0C80E090E0A0E0B0E48B879C8711
:100C9000AD87BE876B857C858D859E8520E030E0A5
:100CA0004AEF54E40E941702DC01CB018F8398873E
:100CB000A987BA876F81788589859A8520E030E099
:100CC00040E85FE30E94710388232CF481E090E008
:100CD0009E838D833FC06F81788589859A8520E0CA
:100CE0003FEF4FE757E40E94110318164CF56B8550
:100CF0007C858D859E8520E030E040E251E40E94B5
:100D00001702DC01CB01BC01CD010E944100DC01D6
:100D1000CB019E838D830FC088EC90E09C838B83F6
:100D20008B819C810197F1F79C838B838D819E81C0
:100D300001979E838D838D819E81009769F714C0F2
:100D40006F81788589859A850E944100DC01CB01FD
:100D50009E838D838D819E819A83898389819A81E7
:100D60000197F1F79A83898383E064E040E00E9471
:100D70008C0C8F858F5F8F878F85823008F4F2CE41
:100D800062960FB6F894DEBF0FBECDBFCF91DF9154
:100D90000895DF93CF93CDB7DEB762970FB6F8947F
:100DA000DEBF0FBECDBF888B83E066E041E00E94CE
:100DB0008C0C83E065E040E00E948C0C1F860AC129
:100DC0008F85282F30E03A8B298B89899A89009763
:100DD00039F029893A892130310509F447C07BC0AF
:100DE0008889982F991F9927991F83E060E0492FE0
:100DF0000E948C0C8889882F90E080749070082E57
:100E0000892F000C881F990B000C881F991F982FA1
:100E100083E061E0492F0E948C0C8889882F90E044
:100E200080729070959587959595879595958795FE
:100E30009595879595958795982F83E062E0492F42
:100E40000E948C0C8889882F90E080719070959515
:100E50008795959587959595879595958795982FDD
:100E600083E063E0492F0E948C0C35C08889882F6D
:100E700090E0887090709595879595958795959554
:100E80008795982F83E060E0492F0E948C0C888919
:100E9000882F90E0847090709595879595958795AB
:100EA000982F83E061E0492F0E948C0C8889882F5D
:100EB00090E08270907095958795982F83E062E01E
:100EC000492F0E948C0C8889982F917083E063E0F1
:100ED000492F0E948C0C83E064E041E00E948C0C5E
:100EE00080E090E0A0E0B0E48B879C87AD87BE8770
:100EF0006B857C858D859E8520E030E04AEF54E44B
:100F00000E941702DC01CB018F839887A987BA87DB
:100F10006F81788589859A8520E030E040E85FE33D
:100F20000E94710388232CF481E090E09E838D83DE
:100F30003FC06F81788589859A8520E03FEF4FE734
:100F400057E40E94110318164CF56B857C858D853E
:100F50009E8520E030E040E251E40E941702DC016F
:100F6000CB01BC01CD010E944100DC01CB019E837D
:100F70008D830FC088EC90E09C838B838B819C8158
:100F80000197F1F79C838B838D819E8101979E83CE
:100F90008D838D819E81009769F714C06F8178855C
:100FA00089859A850E944100DC01CB019E838D8357
:100FB0008D819E819A83898389819A810197F1F736
:100FC0009A83898383E064E040E00E948C0C8F85E3
:100FD0008F5F8F878F85823008F4F2CE62960FB6CE
:100FE000F894DEBF0FBECDBFCF91DF9108950F9370
:100FF0001F93DF93CF93CDB7DEB7C654D0400FB663
:10100000F894DEBF0FBECDBFFE01ED5BFF4F80E069
:1010100090E0A0E2B2E480839183A283B3838E0147
:10102000015C1F4FFE01ED5BFF4F6081718182818A
:10103000938120E030E04AEF54E40E941702DC0183
:10104000CB01F80180839183A283B383FE01FF96D5
:10105000608171818281938120E030E040E85FE32C
:101060000E94710388232CF481E090E09EAF8DAF45
:1010700046C0FE01FF96608171818281938120E0EC
:101080003FEF4FE757E40E941103181664F5FE0185
:10109000ED5BFF4F608171818281938120E030E0C0
:1010A00040E251E40E941702DC01CB01BC01CD01FA
:1010B0000E944100DC01CB019EAF8DAF0FC088ECD8
:1010C00090E09CAF8BAF8BAD9CAD0197F1F79CAFDF
:1010D0008BAF8DAD9EAD01979EAF8DAF8DAD9EADAB
:1010E000009769F716C0FE01FF96608171818281C9
:1010F00093810E944100DC01CB019EAF8DAF8DAD8D
:101100009EAD9AAF89AF89AD9AAD0197F1F79AAFCD
:1011100089AF83E060E040E00E948C0C83E061E0F6
:1011200040E00E948C0C83E062E041E00E948C0C65
:1011300083E063E040E00E948C0C83E064E041E0E7
:101140000E948C0C80E090E0A0E0B0E48DAB9EAB00
:10115000AFABB8AF6DA97EA98FA998AD20E030E004
:101160004AEF54E40E941702DC01CB0189AB9AAB31
:10117000ABABBCAB69A97AA98BA99CA920E030E0F4
:1011800040E85FE30E94710388232CF481E090E043
:1011900098AB8FA73FC069A97AA98BA99CA920E029
:1011A0003FEF4FE757E40E94110318164CF56DA965
:1011B0007EA98FA998AD20E030E040E251E40E9482
:1011C0001702DC01CB01BC01CD010E944100DC0112
:1011D000CB0198AB8FA70FC088EC90E09EA78DA79E
:1011E0008DA59EA50197F1F79EA78DA78FA598A91C
:1011F000019798AB8FA78FA598A9009769F714C09E
:1012000069A97AA98BA99CA90E944100DC01CB01A4
:1012100098AB8FA78FA598A99CA78BA78BA59CA5FA
:101220000197F1F79CA78BA783E064E040E00E9460
:101230008C0C88E20E949B0580E090E0A0E8BFE370
:101240008FA398A7A9A7BAA76FA178A589A59AA5E2
:1012500020E030E04AEF54E40E941702DC01CB01A9
:101260008BA39CA3ADA3BEA36BA17CA18DA19EA1CA
:1012700020E030E040E85FE30E94710388232CF413
:1012800081E090E09AA389A33FC06BA17CA18DA1CE
:101290009EA120E03FEF4FE757E40E94110318168C
:1012A0004CF56FA178A589A59AA520E030E040E231
:1012B00051E40E941702DC01CB01BC01CD010E9468
:1012C0004100DC01CB019AA389A30FC088EC90E018
:1012D00098A38F8F8F8D98A10197F1F798A38F8F87
:1012E00089A19AA101979AA389A389A19AA100979C
:1012F00069F714C06BA17CA18DA19EA10E94410041
:10130000DC01CB019AA389A389A19AA19E8F8D8F1D
:101310008D8D9E8D0197F1F79E8F8D8F8CE00E94B1
:101320009B0580E090E0A0E8BFE3898F9A8FAB8FA8
:10133000BC8F698D7A8D8B8D9C8D20E030E04AEFDB
:1013400054E40E941702DC01CB018D8B9E8BAF8B86
:10135000B88F6D897E898F89988D20E030E040E8D4
:101360005FE30E94710388232CF481E090E09C8B62
:101370008B8B3FC06D897E898F89988D20E03FEFF0
:101380004FE757E40E94110318164CF5698D7A8DCA
:101390008B8D9C8D20E030E040E251E40E941702EA
:1013A000DC01CB01BC01CD010E944100DC01CB017D
:1013B0009C8B8B8B0FC088EC90E09A8B898B8989F2
:1013C0009A890197F1F79A8B898B8B899C89019770
:1013D0009C8B8B8B8B899C89009769F714C06D89D6
:1013E0007E898F89988D0E944100DC01CB019C8B06
:1013F0008B8B8B899C89988B8F878F859889019798
:10140000F1F7988B8F8781E00E949B0580E090E048
:10141000A0E0B0E48B879C87AD87BE876B857C8519
:101420008D859E8520E030E04AEF54E40E9417024B
:10143000DC01CB018F839887A987BA876F81788574
:1014400089859A8520E030E040E85FE30E947103DF
:1014500088232CF481E090E09E838D833FC06F81D0
:10146000788589859A8520E03FEF4FE757E40E9411
:10147000110318164CF56B857C858D859E8520E0C3
:1014800030E040E251E40E941702DC01CB01BC01D4
:10149000CD010E944100DC01CB019E838D830FC0F2
:1014A00088EC90E09C838B838B819C810197F1F782
:1014B0009C838B838D819E8101979E838D838D81FB
:1014C0009E81009769F714C06F81788589859A8518
:1014D0000E944100DC01CB019E838D838D819E8122
:1014E0009A83898389819A810197F1F79A83898305
:1014F000CA5BDF4F0FB6F894DEBF0FBECDBFCF91F2
:10150000DF911F910F910895DF93CF9300D00F9239
:10151000CDB7DEB79B838A8319820EC08981282FBD
:1015200030E08A819B81FC01E20FF31F80810E94E1
:10153000C90689818F5F89838981282F30E08A815C
:101540009B81FC01E20FF31F8081882339F70F9004
:101550000F900F90CF91DF910895DF93CF9300D03C
:101560000F92CDB7DEB78A836B838A81882319F403
:101570008B81898306C08A81813019F48B81805CDC
:101580008983898180580E949B050F900F900F904E
:10159000CF91DF910895DF93CF93CDB7DEB7279733
:1015A0000FB6F894DEBF0FBECDBF9C838B836D83D7
:1015B0004E832F831A828D81882F90E0880F991F88
:1015C000880F991F880F991F8A838A81805C0E94E7
:1015D0009B0519820EC08981282F30E08B819C8168
:1015E000FC01E20FF31F80810E94C90689818F5F91
:1015F00089838981883078F38E816F810E94AD0A5A
:101600008D810E94C90627960FB6F894DEBF0FBEE3
:10161000CDBFCF91DF910895EF92FF920F931F936B
:10162000DF93CF93CDB7DEB764970FB6F894DEBFE4
:101630000FBECDBF6D877E878F87988B8AE090E045
:10164000A0E0B0E08D839E83AF83B8871C821B82AD
:101650008D859E85AF85B889BB238CF481E08B8313
:101660008D859E85AF85B889B095A095909581951B
:101670009F4FAF4FBF4F8D879E87AF87B88B8B81B2
:10168000813019F48DE20E94C9068D859E85AF8553
:10169000B88989879A87AB87BC8715C089859A8561
:1016A000AB85BC852D813E814F815885BC01CD0124
:1016B0000E947516DA01C90189879A87AB87BC87B2
:1016C0008C818F5F8C8389859A85AB85BC850097DB
:1016D000A105B10519F78C818A830DC18D859E8581
:1016E000AF85B88989879A87AB87BC8781E090E00E
:1016F000A0E0B0E08D839E83AF83B8878A8181505C
:10170000898315C08D819E81AF81B8852AE030E044
:1017100040E050E0BC01CD010E945616DC01CB0137
:101720008D839E83AF83B887898181508983898126
:10173000882341F789859A85AB85BC852D813E81BB
:101740004F815885BC01CD010E947516DA01C9018F
:1017500089879A87AB87BC87ED84FE840F851889BB
:1017600089859A85AB85BC852D813E814F815885C1
:10177000BC01CD010E945616DC01CB01A8019701E6
:10178000281B390B4A0B5B0BDA01C9018D879E8739
:10179000AF87B88B89859A85AB85BC85898B9A8BF9
:1017A000AB8BBC8B29893A894B895C892430310504
:1017B0004105510509F481C089899A89AB89BC89A1
:1017C00085309105A105B1059CF529893A894B8998
:1017D0005C89213031054105510509F462C08989D0
:1017E0009A89AB89BC8982309105A105B1055CF469
:1017F00029893A894B895C892115310541055105B3
:1018000009F473C075C089899A89AB89BC89823013
:101810009105A105B10509F448C029893A894B8988
:101820005C89233031054105510509F442C060C08F
:1018300089899A89AB89BC8987309105A105B10551
:1018400009F447C029893A894B895C8928303105D8
:10185000410551059CF489899A89AB89BC898530F9
:101860009105A105B10569F129893A894B895C89FE
:10187000263031054105510541F13AC089899A89DF
:10188000AB89BC8988309105A105B10531F1298961
:101890003A894B895C89293031054105510509F1A7
:1018A00027C081E30E94C90623C082E30E94C906C3
:1018B0001FC083E30E94C9061BC084E30E94C906BF
:1018C00017C085E30E94C90613C086E30E94C906BB
:1018D0000FC087E30E94C9060BC088E30E94C906B7
:1018E00007C089E30E94C90603C080E30E94C906BD
:1018F0008A8181508A838A81882309F0EFCE649699
:101900000FB6F894DEBF0FBECDBFCF91DF911F9110
:101910000F91FF90EF900895DF93CF93CDB7DEB78F
:1019200027970FB6F894DEBF0FBECDBF89836A83B9
:101930004B838B81813009F06FC08981282F30E083
:101940003F832E838E819F818130910549F12E81C5
:101950003F81223031052CF48E819F81009761F008
:10196000D2C02E813F812230310571F18E819F815D
:1019700083309105E9F1C7C0ABE3B0E0EBE3F0E001
:101980008081482F8A81282F30E081E090E0022E6C
:1019900002C0880F991F0A94E2F7842B8C93B3C07E
:1019A000A8E3B0E0E8E3F0E08081482F8A81282FA7
:1019B00030E081E090E0022E02C0880F991F0A9467
:1019C000E2F7842B8C939FC0A5E3B0E0E5E3F0E061
:1019D0008081482F8A81282F30E081E090E0022E1C
:1019E00002C0880F991F0A94E2F7842B8C938BC056
:1019F000A2E3B0E0E2E3F0E08081482F8A81282F63
:101A000030E081E090E0022E02C0880F991F0A9416
:101A1000E2F7842B8C9377C08B81882309F073C005
:101A20008981282F30E03D832C838C819D818130FA
:101A3000910559F12C813D81223031052CF48C81A6
:101A40009D81009769F05FC02C813D812230310576
:101A500089F18C819D818330910509F440C053C088
:101A6000ABE3B0E0EBE3F0E08081482F8A81282FE0
:101A700030E081E090E0022E02C0880F991F0A94A6
:101A8000E2F7809584238C933EC0A8E3B0E0E8E3BE
:101A9000F0E08081482F8A81282F30E081E090E0BB
:101AA000022E02C0880F991F0A94E2F780958423C2
:101AB0008C9329C0A5E3B0E0E5E3F0E08081482FF6
:101AC0008A81282F30E081E090E0022E02C0880F4A
:101AD000991F0A94E2F7809584238C9314C0A2E3A3
:101AE000B0E0E2E3F0E08081482F8A81282F30E0E7
:101AF00081E090E0022E02C0880F991F0A94E2F75D
:101B0000809584238C9327960FB6F894DEBF0FBE82
:101B1000CDBFCF91DF910895DF93CF9300D000D058
:101B20000F92CDB7DEB78A836B838A81282F30E08E
:101B30003D832C834C815D814130510541F18C8185
:101B40009D818230910534F42C813D812115310530
:101B500061F052C04C815D814230510551F18C8160
:101B60009D8183309105B9F147C0E9E3F0E08081C0
:101B7000282F30E08B81882F90E0A90102C0559575
:101B800047958A95E2F7CA018170898335C0E6E3FB
:101B9000F0E08081282F30E08B81882F90E0A90130
:101BA00002C0559547958A95E2F7CA0181708983ED
:101BB00023C0E3E3F0E08081282F30E08B81882F81
:101BC00090E0A90102C0559547958A95E2F7CA01B0
:101BD0008170898311C0E0E3F0E08081282F30E03C
:101BE0008B81882F90E0A90102C0559547958A9571
:101BF000E2F7CA018170898389810F900F900F905D
:101C00000F900F90CF91DF910895DF93CF9300D085
:101C100000D0CDB7DEB789836A838981282F30E071
:101C20003C832B838B819C8181309105D1F02B816A
:101C30003C81223031052CF48B819C81009761F02E
:101C40001EC02B813C812230310581F08B819C812B
:101C50008330910581F013C0EBE3F0E08A8180834B
:101C60000EC0E8E3F0E08A81808309C0E5E3F0E09C
:101C70008A81808304C0E2E3F0E08A8180830F9050
:101C80000F900F900F90CF91DF910895DF93CF9336
:101C900000D000D00F92CDB7DEB789837B836A83F3
:101CA0008981282F30E03D832C838C819D81813078
:101CB0009105E1F02C813D81223031052CF48C819D
:101CC0009D81009761F026C02C813D812230310535
:101CD000A1F08C819D8183309105B1F01BC0E9E3B7
:101CE000F0E08081EA81FB81808314C0E6E3F0E0CC
:101CF0008081EA81FB8180830DC0E3E3F0E0808195
:101D0000EA81FB81808306C0E0E3F0E08081EA8124
:101D1000FB8180830F900F900F900F900F90CF91C9
:101D2000DF910895DF93CF93CDB7DEB7EAE3F0E01C
:101D30001082E7E3F0E080EB8083E4E3F0E01082E0
:101D4000E1E3F0E08EEF8083EBE3F0E01082E8E384
:101D5000F0E01082E5E3F0E01082E2E3F0E01082D0
:101D6000CF91DF910895DF93CF93CDB7DEB781E0B8
:101D700064E040E00E948C0CCF91DF910895DF93E6
:101D8000CF93CDB7DEB781E064E041E00E948C0CD8
:101D9000CF91DF910895DF93CF93CDB7DEB72F9723
:101DA0000FB6F894DEBF0FBECDBF0E94BF0E80E01D
:101DB00090E0A0E8BFE38B879C87AD87BE876B85EB
:101DC0007C858D859E8520E030E04AEF54E40E94BA
:101DD0001702DC01CB018F839887A987BA876F81AF
:101DE000788589859A8520E030E040E85FE30E94AD
:101DF000710388232CF481E090E09E838D833FC0A3
:101E00006F81788589859A8520E03FEF4FE757E419
:101E10000E94110318164CF56B857C858D859E8577
:101E200020E030E040E251E40E941702DC01CB01E7
:101E3000BC01CD010E944100DC01CB019E838D835A
:101E40000FC088EC90E09C838B838B819C810197F1
:101E5000F1F79C838B838D819E8101979E838D8377
:101E60008D819E81009769F714C06F81788589857F
:101E70009A850E944100DC01CB019E838D838D8178
:101E80009E819A83898389819A810197F1F79A8348
:101E900089830E94B30E1F8606C08FEF0E94BF1475
:101EA0008F858F5F8F878F858A30B8F30E94BF0E32
:101EB0008FEF0E94BF142F960FB6F894DEBF0FBEAF
:101EC000CDBFCF91DF910895DF93CF9300D000D0A5
:101ED00000D0CDB7DEB789834A835B836C837D8373
:101EE0002E83898180640E94BF148A819B81AC818A
:101EF000BD818B2F9927AA27BB270E94BF148A81F7
:101F00009B81AC81BD81CD01AA27BB270E94BF1454
:101F10008A819B81AC81BD81892F9A2FAB2FBB27F2
:101F20000E94BF148A810E94BF148E8181600E942A
:101F3000BF1426960FB6F894DEBF0FBECDBFCF916B
:101F4000DF910895DF93CF9300D0CDB7DEB71A822B
:101F500006C08A818F5F8A838A81893038F48FEF47
:101F60000E94BF14898389818F3F99F389810F90E3
:101F70000F90CF91DF910895DF93CF930F92CDB75C
:101F8000DEB78FEF0E94BF140E94B30E8FEF0E9446
:101F9000BF1480E040E050E060E070E024E90E947F
:101FA000640F0E94A20F89838FEF0E94BF1481E00B
:101FB00064E041E00E948C0C8FEF0E94BF14898185
:101FC0000F90CF91DF9108950F931F93DF93CF93DD
:101FD00000D0CDB7DEB79A8389830E94A20FE98132
:101FE000FA818083E981FA818081823040F589819C
:101FF0009A818C010F5F1F4F8FEF0E94BF14F80171
:10200000808389819A818C010E5F1F4F8FEF0E9420
:10201000BF14F801808389819A818C010D5F1F4F65
:102020008FEF0E94BF14F801808389819A818C010F
:102030000C5F1F4F8FEF0E94BF14F80180830F9039
:102040000F90CF91DF911F910F910895DF93CF9360
:1020500000D0CDB7DEB79A8389838FEF0E94BF147B
:1020600081E064E040E00E948C0C8FEF0E94BF147E
:1020700088E04AEA51E060E070E026E80E94640FE0
:1020800089819A810E94E40F8FEF0E94BF1481E042
:1020900064E041E00E948C0C8FEF0E94BF140F900F
:1020A0000F90CF91DF910895DF93CF930F92CDB72B
:1020B000DEB78983898188232CF480E690E00E9432
:1020C000951555C08981882329F482E790E00E9404
:1020D00095154DC08981882F90E08074907000978D
:1020E00021F080E890E00E9495158981882F90E08A
:1020F00080729070009721F083E990E00E9495151E
:102100008981882F90E080719070009721F084EA97
:1021100090E00E9495158981882F90E088709070DA
:10212000009721F08CEB90E00E9495158981882F13
:1021300090E084709070009721F089EC90E00E940C
:1021400095158981882F90E082709070009721F01A
:102150008CED90E00E9495158981882F90E0817028
:102160009070882321F081EF90E00E9495150F90E8
:10217000CF91DF910895DF93CF9300D0CDB7DEB735
:102180009A838983E981FA8180810E945410E981D0
:10219000FA818081823008F06CC082E091E00E9478
:1021A000951589819A81FC013196808182958F7085
:1021B0000E94B21585E191E00E946C1588E191E0E2
:1021C0000E94951589819A81FC0133968081882F20
:1021D00090E08F7190708130910529F48CE291E04C
:1021E0000E94951537C089819A81FC0133968081C0
:1021F000882F90E08F7190708230910529F487E3E9
:1022000091E00E94951526C089819A81FC01339640
:102210008081882F90E08F7190708430910529F42F
:1022200085E491E00E94951515C089819A81FC0191
:1022300033968081882F90E08F719070883091055F
:1022400029F485E491E00E94951504C080E591E0B1
:102250000E9495158EE591E00E94951589819A81DD
:10226000FC01349680810E94B21585E191E00E94C4
:1022700095150F900F90CF91DF910895DF93CF9335
:1022800000D0CDB7DEB79A8389838FEF0E94BF1449
:102290000E94B30E8FEF0E94BF148AE340E050E02B
:1022A00060E070E020E00E94640F89819A810E94C2
:1022B000E40F8FEF0E94BF140E94BF0E8FEF0E94A9
:1022C000BF140F900F90CF91DF910895DF93CF93BC
:1022D00000D0CDB7DEB79A838983E981FA81808106
:1022E0000E945410E981FA818081823008F0B7C0E1
:1022F00086E691E00E94951589819A81FC013196CC
:102300008081882F90E0807490700097E9F08EE7CC
:1023100091E00E94951586E891E00E9495158981CB
:102320009A81FC0131968081882F90E080749070B2
:10233000009729F084E991E00E94951509C088E989
:1023400091E00E94951504C08CE991E00E949515DA
:1023500083EA91E00E94951589819A81FC01339668
:102360008081882324F481EB91E00E949515898176
:102370009A81FC0132968081882F90E08170907064
:10238000882321F08BEB91E00E94951589819A8139
:10239000FC0132968081882F90E0827090700097C7
:1023A00021F085EC91E00E94951589819A81FC01CC
:1023B00032968081882F90E084709070009721F091
:1023C0008FEC91E00E94951589819A81FC013296EB
:1023D0008081882F90E088709070009721F089EDBF
:1023E00091E00E94951589819A81FC013296808145
:1023F000882F90E080719070009721F083EE91E03B
:102400000E94951589819A81FC0132968081882FDE
:1024100090E080729070009721F08DEE91E00E9424
:10242000951589819A81FC0132968081882F90E0F0
:1024300080749070009721F087EF91E00E949515CD
:1024400089819A81FC0132968081882324F481E07D
:1024500092E00E94951585E191E00E9495150F90FC
:102460000F90CF91DF910895DF93CF930F92CDB767
:10247000DEB78FEF0E94BF140E94B30E8FEF0E9451
:10248000BF1487E340E050E060E070E020E00E948D
:10249000640F0E94A20F89838FEF0E94BF140E94D5
:1024A000BF0E8FEF0E94BF1489810F90CF91DF91F3
:1024B0000895DF93CF930F92CDB7DEB78FEF0E94D1
:1024C000BF140E94B30E8FEF0E94BF1489E240E058
:1024D00050E060E070E420E00E94640F0E94A20FD0
:1024E00089838FEF0E94BF140E94BF0E8FEF0E945E
:1024F000BF1489810F90CF91DF910895DF93CF931F
:10250000CDB7DEB765970FB6F894DEBF0FBECDBF6F
:102510001F860E94CB0E09C08F858F5F8F878F85A6
:102520008B3018F081E08D8BAAC00E94BC0F888B85
:102530008889813089F7CE0140960E9426108889CB
:10254000813019F081E08D8B9AC08C898A3A19F01C
:1025500081E08D8B94C01F868F85853618F081E0D1
:102560008D8B8DC00E943412888B8889823018F43C
:102570000E945912888B80E090E0A0E2B1E48B8742
:102580009C87AD87BE876B857C858D859E8520E089
:1025900030E04AEF54E40E941702DC01CB018F8344
:1025A0009887A987BA876F81788589859A8520E081
:1025B00030E040E85FE30E94710388232CF481E05F
:1025C00090E09E838D833FC06F81788589859A8551
:1025D00020E03FEF4FE757E40E94110318164CF537
:1025E0006B857C858D859E8520E030E040E251E45E
:1025F0000E941702DC01CB01BC01CD010E94410009
:10260000DC01CB019E838D830FC088EC90E09C831E
:102610008B838B819C810197F1F79C838B838D81C8
:102620009E8101979E838D838D819E81009769F79E
:1026300014C06F81788589859A850E944100DC01EC
:10264000CB019E838D838D819E819A83898389812D
:102650009A810197F1F79A8389838F858F5F8F879E
:102660008889882309F078CFCE0140960E943E11D8
:10267000898988231CF081E08D8B01C01D8A8D899A
:1026800065960FB6F894DEBF0FBECDBFCF91DF9138
:102690000895DF93CF93CDB7DEB72E970FB6F8949A
:1026A000DEBF0FBECDBF6F83788789879A875C872F
:1026B0004B873E872D871C821B82ED85FE858FEF21
:1026C00080838FEF0E94BF140E94B30E8FEF0E9491
:1026D000BF142F81388549855A8581E1BA01A90146
:1026E00020E00E94640F0E94A20F8E838E818F3F94
:1026F000D9F11C821B8207C08FEF0E94BF148D830B
:102700008D818F3F59F48B819C8101969C838B83B3
:102710008B819C8123E08E30920771F78D818E3FF3
:10272000F9F41A82198210C08FEF0E94BF14EB8552
:10273000FC8580838B859C8501969C878B8789810E
:102740009A8101969A83898389819A8122E08030D7
:10275000920750F38FEF0E94BF148FEF0E94BF14B7
:10276000ED85FE858D8180838FEF0E94BF140E94CE
:10277000BF0E8FEF0E94BF148E812E960FB6F89475
:10278000DEBF0FBECDBFCF91DF910895DF93CF9312
:102790000F92CDB7DEB789838981882F90E088704A
:1027A0009070009721F089E092E00E949515898150
:1027B000882F90E084709070009721F08EE192E075
:1027C0000E9495158981882F90E082709070009703
:1027D00021F081E392E00E9495158981882F90E095
:1027E00081709070882321F08DE392E00E9495150E
:1027F0000F90CF91DF910895DF93CF93CDB7DEB7E0
:1028000061970FB6F894DEBF0FBECDBF6A877B8796
:102810008C879D875F874E87398B288BE889F9895C
:102820008FEF80838FEF0E94BF140E94B30E8FEF53
:102830000E94BF142A853B854C855D8588E1BA01DD
:10284000A90120E00E94640F0E94A20F8D838D8158
:10285000882309F043C08EEF0E94BF141A821982A8
:102860000FC02E853F8589819A81F901E80FF91FF4
:1028700080810E94BF1489819A8101969A838983FD
:1028800089819A8122E08030920758F31C820DC022
:10289000E889F9898FEF80838B81882F90E08F7191
:1028A00090708530910561F019C08C818F5F8C83A9
:1028B0008FEF0E94BF148B838B818F3F49F7F5CF39
:1028C000E889F98985E080831C8203C08C818F5F51
:1028D0008C838FEF0E94BF148823C1F38FEF0E9477
:1028E000BF140E94BF0E8FEF0E94BF148D816196AE
:1028F0000FB6F894DEBF0FBECDBFCF91DF91089524
:10290000DF93CF93CDB7DEB7ADE2B0E0EDE2F0E01C
:10291000808180618C93ADE2B0E0EDE2F0E08081F7
:1029200081608C93ADE2B0E0EDE2F0E08081826006
:102930008C93AEE2B0E0EEE2F0E080818E7F8C938B
:10294000ADE2B0E0EDE2F0E0808180648C93CF9165
:10295000DF910895DF93CF93CDB7DEB7ADE2B0E05E
:10296000EDE2F0E080818F7E8C93ADE2B0E0EDE2AD
:10297000F0E0808180648C93CF91DF910895DF93A4
:10298000CF930F92CDB7DEB78983EFE2F0E0898174
:102990008083EEE2F0E080818823DCF7EFE2F0E074
:1029A00080810F90CF91DF910895DF93CF9300D076
:1029B00000D0CDB7DEB79A83898389819A819C83C1
:1029C0008B838B819C8128E38034920709F448C073
:1029D0008B819C8128E38134920798F48B819C81C0
:1029E00022E1803C920791F18B819C8125E2803825
:1029F000920789F18B819C8129E08036920709F149
:102A000047C08B819C8120E78038920799F18B81A8
:102A10009C8120E78138920738F48B819C812BE4DC
:102A20008030920711F134C08B819C8126E980307F
:102A3000920729F18B819C8121EE8030920721F150
:102A400027C08FEC90E09A83898322C087E690E0CC
:102A50009A8389831DC083E390E09A83898318C099
:102A600082E290E09A83898313C089E190E09A839F
:102A700089830EC080E190E09A83898309C08CE04D
:102A800090E09A83898304C088E090E09A838983E8
:102A9000E0E4F0E086E88083E0E4F0E089819A8178
:102AA000892F99278083E9E2F0E089818083AAE277
:102AB000B0E0EAE2F0E0808180618C93AAE2B0E0CD
:102AC000EAE2F0E0808188608C930F900F900F9085
:102AD0000F90CF91DF910895DF93CF930F92CDB7F1
:102AE000DEB78983EBE2F0E080818295869587707E
:102AF000882F90E0817090700097A1F3ECE2F0E0F5
:102B0000898180830F90CF91DF910895DF93CF93D8
:102B1000CDB7DEB7EBE2F0E080818823DCF7ECE2B2
:102B2000F0E08081CF91DF910895DF93CF9300D0C3
:102B3000CDB7DEB79A8389830BC0E981FA81208102
:102B400089819A8101969A838983822F0E946C15CC
:102B5000E981FA818081882381F70F900F90CF91CE
:102B6000DF910895DF93CF9300D000D00F92CDB7BF
:102B7000DEB78B838B8182958F708A838B818F7078
:102B800089838A818A3018F087E38D8302C090E3BD
:102B90009D838A819D81890F8A8389818A3018F07B
:102BA00087E38C8302C090E39C8389819C81890F99
:102BB00089838A810E946C1589810E946C150F900F
:102BC0000F900F900F900F90CF91DF910895DF93AA
:102BD000CF9300D0CDB7DEB79A83898389819A815C
:102BE000892F99270E94B21589810E94B2150F90F2
:102BF0000F90CF91DF910895DF93CF93CDB7DEB7DC
:102C0000C850D2400FB6F894DEBF0FBECDBF0E94B1
:102C1000920E80E091EE0E94D5140E9480140E94D2
:102C20007E12882329F086E492E00E949515FFCF5A
:102C300084E692E00E9495159E01285F3F4FFE01B9
:102C4000E85FFD4F60E071E280E090E0A9019F0144
:102C50000E9449138B838B81882319F5FE01E85F5D
:102C6000FD4F80818E3FE9F41A8219820FC02981BD
:102C70003A81CE010896FC01E20FF31F80810E9489
:102C8000B21589819A8101969A83898389819A8173
:102C900022E08030920758F38AE792E00E9495156F
:102CA00004C08DE792E00E949515FFCF629FD0018E
:102CB000739FF001829FE00DF11D649FE00DF11DF7
:102CC000929FF00D839FF00D749FF00D659FF00DA6
:102CD0009927729FB00DE11DF91F639FB00DE11D93
:102CE000F91FBD01CF0111240895A1E21A2EAA1BDC
:102CF000BB1BFD010DC0AA1FBB1FEE1FFF1FA217AC
:102D0000B307E407F50720F0A21BB30BE40BF50BA8
:102D1000661F771F881F991F1A9469F76095709531
:102D2000809590959B01AC01BD01CF0108952F9234
:102D30003F924F925F926F927F928F929F92AF924B
:102D4000BF92CF92DF92EF92FF920F931F93CF9398
:102D5000DF93CDB7DEB7CA1BDB0B0FB6F894DEBF2F
:102D60000FBECDBF09942A88398848885F846E8455
:102D70007D848C849B84AA84B984C884DF80EE809F
:102D8000FD800C811B81AA81B981CE0FD11D0FB6A8
:102D9000F894DEBF0FBECDBFED010895F894FFCFCC
:102DA000094572726F723A204D5342203D20310D19
:102DB0000A0009436172642052656164790D0A005A
:102DC00009506172616D65746572204572726F722F
:102DD0000D0A000941646472657373204572726F55
:102DE000720D0A000945726173652053657175653E
:102DF0006E6365204572726F720D0A00094352437B
:102E0000204572726F720D0A0009496C6C6567612A
:102E10006C20436F6D6D616E640D0A00094572612F
:102E20007365205265736574204572726F720D0A66
:102E30000009496E2049646C652053746174650D06
:102E40000A0009436F6D6D616E6420566572736987
:102E50006F6E3A20000D0A0009566F6C7461676549
:102E60002041636365707465643A2000322E372D0B
:102E7000332E36560D0A004C4F5720564F4C5441B6
:102E800047450D0A0052455345525645440D0A0028
:102E90004E4F5420444546494E45440D0A000945CD
:102EA00063686F3A2000094361726420506F776550
:102EB00072205570205374617475733A2000524526
:102EC0004144590D0A0009434353205374617475FA
:102ED000733A2000310D0A00300D0A004255535953
:102EE0000D0A00095644442057696E646F773A20F2
:102EF00000322E372D322E382C2000322E382D3233
:102F00002E392C2000322E392D332E302C20003338
:102F10002E302D332E312C2000332E312D332E32F6
:102F20002C2000332E322D332E332C2000332E3321
:102F30002D332E342C2000332E342D332E352C20DF
:102F400000332E352D332E36000944617461206F15
:102F50007574206F662072616E67650D0A00094303
:102F600061726420454343206661696C65640D0AA3
:102F700000094343204572726F720D0A00094572C1
:102F8000726F720D0A004572726F7220696E6974F9
:102F900069616C697A61696E6720534420434152CC
:102FA000440D0A005344204361726420696E6974C1
:102FB00069616C697A65640D0A000D0A00457272D8
:102FC0006F722072656164696E6720736563746FE8
:0C2FD000720D0A0000000000000000006C
:00000001FF
